{
  "contractName": "Retailing",
  "abi": [
    {
      "inputs": [],
      "name": "customer",
      "outputs": [
        {
          "internalType": "address",
          "name": "",
          "type": "address"
        }
      ],
      "stateMutability": "view",
      "type": "function"
    },
    {
      "inputs": [],
      "name": "owner",
      "outputs": [
        {
          "internalType": "address",
          "name": "",
          "type": "address"
        }
      ],
      "stateMutability": "view",
      "type": "function"
    },
    {
      "inputs": [],
      "name": "value",
      "outputs": [
        {
          "internalType": "uint256",
          "name": "",
          "type": "uint256"
        }
      ],
      "stateMutability": "view",
      "type": "function"
    },
    {
      "inputs": [
        {
          "internalType": "address",
          "name": "buyer",
          "type": "address"
        },
        {
          "internalType": "uint256",
          "name": "value",
          "type": "uint256"
        }
      ],
      "name": "paid",
      "outputs": [],
      "stateMutability": "nonpayable",
      "type": "function"
    }
  ],
  "bytecode": "0x608060405234801561001057600080fd5b5061030c806100206000396000f3fe608060405234801561001057600080fd5b506004361061004c5760003560e01c80632804b2c0146100515780633fa4f2451461006f5780638c7266181461008d5780638da5cb5b146100a9575b600080fd5b6100596100c7565b60405161006691906101ea565b60405180910390f35b6100776100eb565b604051610084919061021e565b60405180910390f35b6100a760048036038101906100a29190610296565b6100f1565b005b6100b1610183565b6040516100be91906101ea565b60405180910390f35b60008054906101000a900473ffffffffffffffffffffffffffffffffffffffff1681565b60025481565b600181106100fe57600080fd5b33600160006101000a81548173ffffffffffffffffffffffffffffffffffffffff021916908373ffffffffffffffffffffffffffffffffffffffff160217905550816000806101000a81548173ffffffffffffffffffffffffffffffffffffffff021916908373ffffffffffffffffffffffffffffffffffffffff1602179055505050565b600160009054906101000a900473ffffffffffffffffffffffffffffffffffffffff1681565b600073ffffffffffffffffffffffffffffffffffffffff82169050919050565b60006101d4826101a9565b9050919050565b6101e4816101c9565b82525050565b60006020820190506101ff60008301846101db565b92915050565b6000819050919050565b61021881610205565b82525050565b6000602082019050610233600083018461020f565b92915050565b600080fd5b610247816101c9565b811461025257600080fd5b50565b6000813590506102648161023e565b92915050565b61027381610205565b811461027e57600080fd5b50565b6000813590506102908161026a565b92915050565b600080604083850312156102ad576102ac610239565b5b60006102bb85828601610255565b92505060206102cc85828601610281565b915050925092905056fea264697066735822122085bfb8a2acf185cf18fe85604fad95185ce7e50dc8f8afd9cdec02c5410125a064736f6c63430008110033",
  "immutableReferences": {},
  "source": "// SPDX-License-Identifier: MIT\r\npragma solidity ^0.8.1;\r\n\r\n\r\ncontract Retailing {\r\n    address public customer;\r\n    address public owner;\r\n    uint256 public value;\r\n\r\n\r\nfunction paid(address buyer, uint256 value) public {\r\n    require(value < 1);\r\n     owner = msg.sender;\r\n     customer = buyer;\r\n}\r\n} ",
  "sourcePath": "C:\\Users\\Admin\\Desktop\\ecommerce-dapp\\contracts\\Retailing.sol",
  "compiler": {
    "name": "solc",
    "version": "0.8.17+commit.8df45f5f.Emscripten.clang"
  },
  "schemaVersion": "3.4.11",
  "updatedAt": "2022-12-30T07:22:36.869Z",
  "devdoc": {
    "kind": "dev",
    "methods": {},
    "version": 1
  },
  "userdoc": {
    "kind": "user",
    "methods": {},
    "version": 1
  }
}